:020000040800F2
:1000000000040020450100084D0100084F010008D0
:1000100051010008530100085501000800000000CC
:100020000000000000000000000000005701000870
:1000300059010008000000005B0100085D01000894
:100040005F0100085F0100085F0100085F01000810
:100050005F0100085F0100085F0100085F01000800
:100060005F0100085F0100085F0100085F010008F0
:100070005F0100085F0100085F0100085F010008E0
:100080005F0100085F0100085F0100085F010008D0
:100090005F0100085F0100085F0100085F010008C0
:1000A0005F0100085F0100085F0100085F010008B0
:1000B0005F0100085F0100085F0100085F010008A0
:1000C0005F0100085F0100085F0100085F01000890
:1000D0005F0100085F0100085F0100085F01000880
:1000E0005F0100085F0100085F0100085F01000870
:1000F0005F0100085F0100085F0100085F01000860
:100100005F0100085F0100085F0100085F0100084F
:100110005F0100085F0100085F0100085F0100083F
:100120005F0100085F0100085F0100085F0100082F
:10013000DFF80CD000F018F800480047650300080D
:10014000000400200648804706480047FEE7FEE717
:10015000FEE7FEE7FEE7FEE7FEE7FEE7FEE7FEE777
:100160006103000831010008064C074D06E0E06815
:1001700040F0010394E8070098471034AC42F6D3EE
:10018000FFF7DAFFE8030008F803000881B00090E9
:10019000FFE7009828B1FFE7FFE7009801380090DB
:1001A000F7E701B07047000088B007900691002083
:1001B000059004900390029001900090069880882A
:1001C00000F00F00059006988088C006002806D52C
:1001D000FFE706984188059808430590FFE70698D1
:1001E000007800284BD0FFE70798006801900020B6
:1001F0000390FFE7039807283DD8FFE70399012004
:10020000884002900698008802990840049004985B
:10021000029988422AD1FFE7039880000290029950
:100220000F2088400090009901988843019005981C
:10023000029900FA01F1019808430190069880881C
:10024000282806D1FFE703990120884007994861D3
:100250000BE006988088482806D1FFE70399012023
:10026000884007990861FFE7FFE7FFE7FFE703988A
:1002700001300390BEE7019807990860FFE70698F0
:100280000088B0F5807F50DBFFE707984068019059
:1002900000200390FFE70398072842D8FFE7039860
:1002A00000F1080101208840029006980088029918
:1002B000084004900498029988422DD1FFE70398E2
:1002C0008000029002990F208840009000990198C8
:1002D000884301900598029900FA01F101980843BA
:1002E000019006988088282808D1FFE7039800F13C
:1002F00008010120884007994861FFE70698808837
:10030000482808D1FFE7039800F108010120884040
:1003100007990861FFE7FFE7FFE7039801300390C3
:10032000B9E7019807994860FFE708B070470000F7
:1003300082B00190ADF80210BDF802200199486921
:100340001043486102B0704782B00190ADF80210CE
:10035000BDF80220019908691043086102B0704796
:100360007047000080B586B00020059041F218016A
:10037000C4F20201086840F0080008600120ADF8EE
:100380000C001020ADF810000320ADF80E0040F670
:100390000040C4F2010003A9FFF706FFFFE740F6A3
:1003A0000040C4F20100009001210191FFF7CCFF51
:1003B0004FF6FF700290FFF7E9FE00980199FFF7F2
:1003C000B7FF0298FFF7E2FEE9E702E008C8121F54
:1003D00008C1002AFAD170477047002001E001C12E
:1003E000121F002AFBD17047F8030008000000200C
:0803F00000040000DA0300081C
:0400000508000131BD
:00000001FF
